{
  "_format": "hh-sol-artifact-1",
  "contractName": "GamePool",
  "sourceName": "contracts/GamePool.sol",
  "abi": [
    {
      "inputs": [],
      "stateMutability": "nonpayable",
      "type": "constructor"
    },
    {
      "anonymous": false,
      "inputs": [
        {
          "indexed": true,
          "internalType": "address",
          "name": "player",
          "type": "address"
        },
        {
          "indexed": false,
          "internalType": "uint256",
          "name": "amount",
          "type": "uint256"
        }
      ],
      "name": "Deposited",
      "type": "event"
    },
    {
      "anonymous": false,
      "inputs": [
        {
          "indexed": true,
          "internalType": "address",
          "name": "to",
          "type": "address"
        },
        {
          "indexed": false,
          "internalType": "uint256",
          "name": "amount",
          "type": "uint256"
        }
      ],
      "name": "Payout",
      "type": "event"
    },
    {
      "inputs": [],
      "name": "deposit",
      "outputs": [],
      "stateMutability": "payable",
      "type": "function"
    },
    {
      "inputs": [
        {
          "internalType": "address",
          "name": "",
          "type": "address"
        }
      ],
      "name": "deposits",
      "outputs": [
        {
          "internalType": "uint256",
          "name": "",
          "type": "uint256"
        }
      ],
      "stateMutability": "view",
      "type": "function"
    },
    {
      "inputs": [],
      "name": "owner",
      "outputs": [
        {
          "internalType": "address",
          "name": "",
          "type": "address"
        }
      ],
      "stateMutability": "view",
      "type": "function"
    },
    {
      "inputs": [
        {
          "internalType": "address",
          "name": "to",
          "type": "address"
        },
        {
          "internalType": "uint256",
          "name": "amount",
          "type": "uint256"
        }
      ],
      "name": "payout",
      "outputs": [],
      "stateMutability": "nonpayable",
      "type": "function"
    },
    {
      "inputs": [],
      "name": "totalPot",
      "outputs": [
        {
          "internalType": "uint256",
          "name": "",
          "type": "uint256"
        }
      ],
      "stateMutability": "view",
      "type": "function"
    }
  ],
  "bytecode": "0x608060405234801561001057600080fd5b50336000806101000a81548173ffffffffffffffffffffffffffffffffffffffff021916908373ffffffffffffffffffffffffffffffffffffffff160217905550610870806100606000396000f3fe60806040526004361061004a5760003560e01c8063117de2fd1461004f57806324b570a9146100785780638da5cb5b146100a3578063d0e30db0146100ce578063fc7e286d146100d8575b600080fd5b34801561005b57600080fd5b50610076600480360381019061007191906104db565b610115565b005b34801561008457600080fd5b5061008d6102fe565b60405161009a919061052a565b60405180910390f35b3480156100af57600080fd5b506100b8610304565b6040516100c59190610554565b60405180910390f35b6100d6610328565b005b3480156100e457600080fd5b506100ff60048036038101906100fa919061056f565b61042a565b60405161010c919061052a565b60405180910390f35b60008054906101000a900473ffffffffffffffffffffffffffffffffffffffff1673ffffffffffffffffffffffffffffffffffffffff163373ffffffffffffffffffffffffffffffffffffffff16146101a3576040517f08c379a000000000000000000000000000000000000000000000000000000000815260040161019a906105f9565b60405180910390fd5b478111156101e6576040517f08c379a00000000000000000000000000000000000000000000000000000000081526004016101dd90610665565b60405180910390fd5b80600160008282546101f891906106b4565b9250508190555060008273ffffffffffffffffffffffffffffffffffffffff168260405161022590610719565b60006040518083038185875af1925050503d8060008114610262576040519150601f19603f3d011682016040523d82523d6000602084013e610267565b606091505b50509050806102ab576040517f08c379a00000000000000000000000000000000000000000000000000000000081526004016102a29061077a565b60405180910390fd5b8273ffffffffffffffffffffffffffffffffffffffff167f5afeca38b2064c23a692c4cf353015d80ab3ecc417b4f893f372690c11fbd9a6836040516102f1919061052a565b60405180910390a2505050565b60015481565b60008054906101000a900473ffffffffffffffffffffffffffffffffffffffff1681565b6000341161036b576040517f08c379a0000000000000000000000000000000000000000000000000000000008152600401610362906107e6565b60405180910390fd5b34600260003373ffffffffffffffffffffffffffffffffffffffff1673ffffffffffffffffffffffffffffffffffffffff16815260200190815260200160002060008282546103ba9190610806565b9250508190555034600160008282546103d39190610806565b925050819055503373ffffffffffffffffffffffffffffffffffffffff167f2da466a7b24304f47e87fa2e1e5a81b9831ce54fec19055ce277ca2f39ba42c434604051610420919061052a565b60405180910390a2565b60026020528060005260406000206000915090505481565b600080fd5b600073ffffffffffffffffffffffffffffffffffffffff82169050919050565b600061047282610447565b9050919050565b61048281610467565b811461048d57600080fd5b50565b60008135905061049f81610479565b92915050565b6000819050919050565b6104b8816104a5565b81146104c357600080fd5b50565b6000813590506104d5816104af565b92915050565b600080604083850312156104f2576104f1610442565b5b600061050085828601610490565b9250506020610511858286016104c6565b9150509250929050565b610524816104a5565b82525050565b600060208201905061053f600083018461051b565b92915050565b61054e81610467565b82525050565b60006020820190506105696000830184610545565b92915050565b60006020828403121561058557610584610442565b5b600061059384828501610490565b91505092915050565b600082825260208201905092915050565b7f6e6f74206f776e65720000000000000000000000000000000000000000000000600082015250565b60006105e360098361059c565b91506105ee826105ad565b602082019050919050565b60006020820190508181036000830152610612816105d6565b9050919050565b7f696e73756666696369656e740000000000000000000000000000000000000000600082015250565b600061064f600c8361059c565b915061065a82610619565b602082019050919050565b6000602082019050818103600083015261067e81610642565b9050919050565b7f4e487b7100000000000000000000000000000000000000000000000000000000600052601160045260246000fd5b60006106bf826104a5565b91506106ca836104a5565b92508282039050818111156106e2576106e1610685565b5b92915050565b600081905092915050565b50565b60006107036000836106e8565b915061070e826106f3565b600082019050919050565b6000610724826106f6565b9150819050919050565b7f7472616e73666572206661696c65640000000000000000000000000000000000600082015250565b6000610764600f8361059c565b915061076f8261072e565b602082019050919050565b6000602082019050818103600083015261079381610757565b9050919050565b7f7a65726f206465706f7369740000000000000000000000000000000000000000600082015250565b60006107d0600c8361059c565b91506107db8261079a565b602082019050919050565b600060208201905081810360008301526107ff816107c3565b9050919050565b6000610811826104a5565b915061081c836104a5565b925082820190508082111561083457610833610685565b5b9291505056fea264697066735822122047ad7c2cd04817c948606f59c8b6375a2f576b8c37b59a507071c555000b4a0964736f6c63430008140033",
  "linkReferences": {},
  "deployedLinkReferences": {}
}